{
  "_format": "hh-sol-artifact-1",
  "contractName": "NFT_staker",
  "sourceName": "contracts/NFT_staker.sol",
  "abi": [
    {
      "inputs": [],
      "stateMutability": "nonpayable",
      "type": "constructor"
    },
    {
      "inputs": [
        {
          "internalType": "uint256",
          "name": "nftId",
          "type": "uint256"
        }
      ],
      "name": "NFTowner",
      "outputs": [
        {
          "internalType": "address",
          "name": "owner",
          "type": "address"
        }
      ],
      "stateMutability": "view",
      "type": "function"
    },
    {
      "inputs": [
        {
          "internalType": "address",
          "name": "",
          "type": "address"
        }
      ],
      "name": "isStacked",
      "outputs": [
        {
          "internalType": "bool",
          "name": "",
          "type": "bool"
        }
      ],
      "stateMutability": "view",
      "type": "function"
    },
    {
      "inputs": [
        {
          "internalType": "address",
          "name": "operator",
          "type": "address"
        },
        {
          "internalType": "address",
          "name": "from",
          "type": "address"
        },
        {
          "internalType": "uint256",
          "name": "tokenId",
          "type": "uint256"
        },
        {
          "internalType": "bytes",
          "name": "data",
          "type": "bytes"
        }
      ],
      "name": "onERC721Received",
      "outputs": [
        {
          "internalType": "bytes4",
          "name": "",
          "type": "bytes4"
        }
      ],
      "stateMutability": "nonpayable",
      "type": "function"
    },
    {
      "inputs": [],
      "name": "parentNFT",
      "outputs": [
        {
          "internalType": "contract IERC721",
          "name": "",
          "type": "address"
        }
      ],
      "stateMutability": "view",
      "type": "function"
    },
    {
      "inputs": [
        {
          "internalType": "address",
          "name": "_address",
          "type": "address"
        }
      ],
      "name": "rentNFT",
      "outputs": [],
      "stateMutability": "nonpayable",
      "type": "function"
    },
    {
      "inputs": [
        {
          "internalType": "uint256",
          "name": "_tokenId",
          "type": "uint256"
        },
        {
          "internalType": "uint256",
          "name": "_amount",
          "type": "uint256"
        }
      ],
      "name": "stake",
      "outputs": [],
      "stateMutability": "nonpayable",
      "type": "function"
    },
    {
      "inputs": [
        {
          "internalType": "address",
          "name": "",
          "type": "address"
        }
      ],
      "name": "stakes",
      "outputs": [
        {
          "internalType": "uint256",
          "name": "tokenId",
          "type": "uint256"
        },
        {
          "internalType": "uint256",
          "name": "amount",
          "type": "uint256"
        },
        {
          "internalType": "uint256",
          "name": "timestamp",
          "type": "uint256"
        }
      ],
      "stateMutability": "view",
      "type": "function"
    },
    {
      "inputs": [
        {
          "internalType": "address",
          "name": "",
          "type": "address"
        }
      ],
      "name": "stakingTime",
      "outputs": [
        {
          "internalType": "uint256",
          "name": "",
          "type": "uint256"
        }
      ],
      "stateMutability": "view",
      "type": "function"
    },
    {
      "inputs": [
        {
          "internalType": "uint256",
          "name": "nftId",
          "type": "uint256"
        }
      ],
      "name": "stopRentingNFT",
      "outputs": [],
      "stateMutability": "nonpayable",
      "type": "function"
    },
    {
      "inputs": [],
      "name": "unstake",
      "outputs": [],
      "stateMutability": "nonpayable",
      "type": "function"
    }
  ],
  "bytecode": "0x608060405234801561001057600080fd5b507375d335bbb2ba494138e6c3f2df30dc78881272fa6000806101000a81548173ffffffffffffffffffffffffffffffffffffffff021916908373ffffffffffffffffffffffffffffffffffffffff160217905550610ea6806100746000396000f3fe608060405234801561001057600080fd5b506004361061009e5760003560e01c80637b0472f0116100665780637b0472f01461016f578063b8e33fb21461018b578063c03a033e146101a9578063c56a21e5146101d9578063f363510b146101f55761009e565b8063150b7a02146100a357806316934fc4146100d35780632def662014610105578063583d42fd1461010f57806372a580121461013f575b600080fd5b6100bd60048036038101906100b89190610a26565b610211565b6040516100ca9190610ae9565b60405180910390f35b6100ed60048036038101906100e89190610b04565b61023f565b6040516100fc93929190610b40565b60405180910390f35b61010d610269565b005b61012960048036038101906101249190610b04565b61050f565b6040516101369190610b77565b60405180910390f35b61015960048036038101906101549190610b92565b610527565b6040516101669190610bce565b60405180910390f35b61018960048036038101906101849190610be9565b610564565b005b610193610779565b6040516101a09190610c88565b60405180910390f35b6101c360048036038101906101be9190610b04565b61079d565b6040516101d09190610cbe565b60405180910390f35b6101f360048036038101906101ee9190610b04565b6107bd565b005b61020f600480360381019061020a9190610b92565b610891565b005b60007f150b7a023d4804d13e8c85fb27262cb750cf6ba9f9dd3bb30d90f482ceeb4b1f905095945050505050565b60036020528060005260406000206000915090508060000154908060010154908060020154905083565b60008054906101000a900473ffffffffffffffffffffffffffffffffffffffff1673ffffffffffffffffffffffffffffffffffffffff1663b88d4fde3033600360003373ffffffffffffffffffffffffffffffffffffffff1673ffffffffffffffffffffffffffffffffffffffff168152602001908152602001600020600001546040518463ffffffff1660e01b815260040161030893929190610d36565b600060405180830381600087803b15801561032257600080fd5b505af1158015610336573d6000803e3d6000fd5b50505050600360003373ffffffffffffffffffffffffffffffffffffffff1673ffffffffffffffffffffffffffffffffffffffff16815260200190815260200160002060020154426103889190610daf565b600460003373ffffffffffffffffffffffffffffffffffffffff1673ffffffffffffffffffffffffffffffffffffffff16815260200190815260200160002060008282546103d69190610de3565b925050819055506000600560003373ffffffffffffffffffffffffffffffffffffffff1673ffffffffffffffffffffffffffffffffffffffff16815260200190815260200160002060006101000a81548160ff021916908315150217905550600360003373ffffffffffffffffffffffffffffffffffffffff1673ffffffffffffffffffffffffffffffffffffffff1681526020019081526020016000206000808201600090556001820160009055600282016000905550506000600360003373ffffffffffffffffffffffffffffffffffffffff1673ffffffffffffffffffffffffffffffffffffffff1681526020019081526020016000206000015490506002600082815260200190815260200160002060006101000a81549073ffffffffffffffffffffffffffffffffffffffff021916905550565b60046020528060005260406000206000915090505481565b60006002600083815260200190815260200160002060009054906101000a900473ffffffffffffffffffffffffffffffffffffffff169050919050565b60001515600560003373ffffffffffffffffffffffffffffffffffffffff1673ffffffffffffffffffffffffffffffffffffffff16815260200190815260200160002060009054906101000a900460ff161515146105c157600080fd5b604051806060016040528083815260200182815260200142815250600360003373ffffffffffffffffffffffffffffffffffffffff1673ffffffffffffffffffffffffffffffffffffffff1681526020019081526020016000206000820151816000015560208201518160010155604082015181600201559050506001600560003373ffffffffffffffffffffffffffffffffffffffff1673ffffffffffffffffffffffffffffffffffffffff16815260200190815260200160002060006101000a81548160ff021916908315150217905550336002600084815260200190815260200160002060006101000a81548173ffffffffffffffffffffffffffffffffffffffff021916908373ffffffffffffffffffffffffffffffffffffffff16021790555060008054906101000a900473ffffffffffffffffffffffffffffffffffffffff1673ffffffffffffffffffffffffffffffffffffffff1663b88d4fde3330856040518463ffffffff1660e01b815260040161074393929190610d36565b600060405180830381600087803b15801561075d57600080fd5b505af1158015610771573d6000803e3d6000fd5b505050505050565b60008054906101000a900473ffffffffffffffffffffffffffffffffffffffff1681565b60056020528060005260406000206000915054906101000a900460ff1681565b60008054906101000a900473ffffffffffffffffffffffffffffffffffffffff1673ffffffffffffffffffffffffffffffffffffffff166323b872dd3033600360008673ffffffffffffffffffffffffffffffffffffffff1673ffffffffffffffffffffffffffffffffffffffff168152602001908152602001600020600001546040518463ffffffff1660e01b815260040161085c93929190610e39565b600060405180830381600087803b15801561087657600080fd5b505af115801561088a573d6000803e3d6000fd5b5050505050565b60008054906101000a900473ffffffffffffffffffffffffffffffffffffffff1673ffffffffffffffffffffffffffffffffffffffff166323b872dd3330846040518463ffffffff1660e01b81526004016108ee93929190610e39565b600060405180830381600087803b15801561090857600080fd5b505af115801561091c573d6000803e3d6000fd5b5050505050565b600080fd5b600080fd5b600073ffffffffffffffffffffffffffffffffffffffff82169050919050565b60006109588261092d565b9050919050565b6109688161094d565b811461097357600080fd5b50565b6000813590506109858161095f565b92915050565b6000819050919050565b61099e8161098b565b81146109a957600080fd5b50565b6000813590506109bb81610995565b92915050565b600080fd5b600080fd5b600080fd5b60008083601f8401126109e6576109e56109c1565b5b8235905067ffffffffffffffff811115610a0357610a026109c6565b5b602083019150836001820283011115610a1f57610a1e6109cb565b5b9250929050565b600080600080600060808688031215610a4257610a41610923565b5b6000610a5088828901610976565b9550506020610a6188828901610976565b9450506040610a72888289016109ac565b935050606086013567ffffffffffffffff811115610a9357610a92610928565b5b610a9f888289016109d0565b92509250509295509295909350565b60007fffffffff0000000000000000000000000000000000000000000000000000000082169050919050565b610ae381610aae565b82525050565b6000602082019050610afe6000830184610ada565b92915050565b600060208284031215610b1a57610b19610923565b5b6000610b2884828501610976565b91505092915050565b610b3a8161098b565b82525050565b6000606082019050610b556000830186610b31565b610b626020830185610b31565b610b6f6040830184610b31565b949350505050565b6000602082019050610b8c6000830184610b31565b92915050565b600060208284031215610ba857610ba7610923565b5b6000610bb6848285016109ac565b91505092915050565b610bc88161094d565b82525050565b6000602082019050610be36000830184610bbf565b92915050565b60008060408385031215610c0057610bff610923565b5b6000610c0e858286016109ac565b9250506020610c1f858286016109ac565b9150509250929050565b6000819050919050565b6000610c4e610c49610c448461092d565b610c29565b61092d565b9050919050565b6000610c6082610c33565b9050919050565b6000610c7282610c55565b9050919050565b610c8281610c67565b82525050565b6000602082019050610c9d6000830184610c79565b92915050565b60008115159050919050565b610cb881610ca3565b82525050565b6000602082019050610cd36000830184610caf565b92915050565b600082825260208201905092915050565b7f3078303000000000000000000000000000000000000000000000000000000000600082015250565b6000610d20600483610cd9565b9150610d2b82610cea565b602082019050919050565b6000608082019050610d4b6000830186610bbf565b610d586020830185610bbf565b610d656040830184610b31565b8181036060830152610d7681610d13565b9050949350505050565b7f4e487b7100000000000000000000000000000000000000000000000000000000600052601160045260246000fd5b6000610dba8261098b565b9150610dc58361098b565b925082821015610dd857610dd7610d80565b5b828203905092915050565b6000610dee8261098b565b9150610df98361098b565b9250827fffffffffffffffffffffffffffffffffffffffffffffffffffffffffffffffff03821115610e2e57610e2d610d80565b5b828201905092915050565b6000606082019050610e4e6000830186610bbf565b610e5b6020830185610bbf565b610e686040830184610b31565b94935050505056fea2646970667358221220595b32988b3fc89b4f5a6333ed578d64012492cea0d8e40810704447960c7d0064736f6c634300080b0033",
  "linkReferences": {},
  "deployedLinkReferences": {}
}