{
  "_format": "hh-sol-artifact-1",
  "contractName": "Domain",
  "sourceName": "contracts/Domain.sol",
  "abi": [
    {
      "inputs": [
        {
          "internalType": "string",
          "name": "_tld",
          "type": "string"
        }
      ],
      "stateMutability": "payable",
      "type": "constructor"
    },
    {
      "anonymous": false,
      "inputs": [
        {
          "indexed": true,
          "internalType": "address",
          "name": "owner",
          "type": "address"
        },
        {
          "indexed": true,
          "internalType": "address",
          "name": "approved",
          "type": "address"
        },
        {
          "indexed": true,
          "internalType": "uint256",
          "name": "tokenId",
          "type": "uint256"
        }
      ],
      "name": "Approval",
      "type": "event"
    },
    {
      "anonymous": false,
      "inputs": [
        {
          "indexed": true,
          "internalType": "address",
          "name": "owner",
          "type": "address"
        },
        {
          "indexed": true,
          "internalType": "address",
          "name": "operator",
          "type": "address"
        },
        {
          "indexed": false,
          "internalType": "bool",
          "name": "approved",
          "type": "bool"
        }
      ],
      "name": "ApprovalForAll",
      "type": "event"
    },
    {
      "anonymous": false,
      "inputs": [
        {
          "indexed": true,
          "internalType": "address",
          "name": "from",
          "type": "address"
        },
        {
          "indexed": true,
          "internalType": "address",
          "name": "to",
          "type": "address"
        },
        {
          "indexed": true,
          "internalType": "uint256",
          "name": "tokenId",
          "type": "uint256"
        }
      ],
      "name": "Transfer",
      "type": "event"
    },
    {
      "inputs": [
        {
          "internalType": "uint256",
          "name": "",
          "type": "uint256"
        }
      ],
      "name": "DomainOwneraddress",
      "outputs": [
        {
          "internalType": "address",
          "name": "",
          "type": "address"
        }
      ],
      "stateMutability": "view",
      "type": "function"
    },
    {
      "inputs": [
        {
          "internalType": "address",
          "name": "to",
          "type": "address"
        },
        {
          "internalType": "uint256",
          "name": "tokenId",
          "type": "uint256"
        }
      ],
      "name": "approve",
      "outputs": [],
      "stateMutability": "nonpayable",
      "type": "function"
    },
    {
      "inputs": [
        {
          "internalType": "address",
          "name": "owner",
          "type": "address"
        }
      ],
      "name": "balanceOf",
      "outputs": [
        {
          "internalType": "uint256",
          "name": "",
          "type": "uint256"
        }
      ],
      "stateMutability": "view",
      "type": "function"
    },
    {
      "inputs": [
        {
          "internalType": "string",
          "name": "",
          "type": "string"
        }
      ],
      "name": "domains",
      "outputs": [
        {
          "internalType": "address",
          "name": "",
          "type": "address"
        }
      ],
      "stateMutability": "view",
      "type": "function"
    },
    {
      "inputs": [
        {
          "internalType": "string",
          "name": "name",
          "type": "string"
        }
      ],
      "name": "getAddress",
      "outputs": [
        {
          "internalType": "address",
          "name": "",
          "type": "address"
        }
      ],
      "stateMutability": "view",
      "type": "function"
    },
    {
      "inputs": [],
      "name": "getAllNames",
      "outputs": [
        {
          "internalType": "string[]",
          "name": "",
          "type": "string[]"
        }
      ],
      "stateMutability": "view",
      "type": "function"
    },
    {
      "inputs": [
        {
          "internalType": "uint256",
          "name": "tokenId",
          "type": "uint256"
        }
      ],
      "name": "getApproved",
      "outputs": [
        {
          "internalType": "address",
          "name": "",
          "type": "address"
        }
      ],
      "stateMutability": "view",
      "type": "function"
    },
    {
      "inputs": [
        {
          "internalType": "string",
          "name": "name",
          "type": "string"
        }
      ],
      "name": "getRecord",
      "outputs": [
        {
          "internalType": "address",
          "name": "_address",
          "type": "address"
        },
        {
          "internalType": "string",
          "name": "",
          "type": "string"
        },
        {
          "internalType": "string",
          "name": "",
          "type": "string"
        }
      ],
      "stateMutability": "view",
      "type": "function"
    },
    {
      "inputs": [
        {
          "internalType": "address",
          "name": "_owner",
          "type": "address"
        }
      ],
      "name": "getRecordByAddress",
      "outputs": [
        {
          "internalType": "string",
          "name": "",
          "type": "string"
        }
      ],
      "stateMutability": "view",
      "type": "function"
    },
    {
      "inputs": [
        {
          "internalType": "address",
          "name": "owner",
          "type": "address"
        },
        {
          "internalType": "address",
          "name": "operator",
          "type": "address"
        }
      ],
      "name": "isApprovedForAll",
      "outputs": [
        {
          "internalType": "bool",
          "name": "",
          "type": "bool"
        }
      ],
      "stateMutability": "view",
      "type": "function"
    },
    {
      "inputs": [
        {
          "internalType": "string",
          "name": "",
          "type": "string"
        }
      ],
      "name": "isOwned",
      "outputs": [
        {
          "internalType": "bool",
          "name": "",
          "type": "bool"
        }
      ],
      "stateMutability": "view",
      "type": "function"
    },
    {
      "inputs": [],
      "name": "isOwner",
      "outputs": [
        {
          "internalType": "bool",
          "name": "",
          "type": "bool"
        }
      ],
      "stateMutability": "view",
      "type": "function"
    },
    {
      "inputs": [],
      "name": "name",
      "outputs": [
        {
          "internalType": "string",
          "name": "",
          "type": "string"
        }
      ],
      "stateMutability": "view",
      "type": "function"
    },
    {
      "inputs": [
        {
          "internalType": "uint256",
          "name": "",
          "type": "uint256"
        }
      ],
      "name": "names",
      "outputs": [
        {
          "internalType": "string",
          "name": "",
          "type": "string"
        }
      ],
      "stateMutability": "view",
      "type": "function"
    },
    {
      "inputs": [],
      "name": "owner",
      "outputs": [
        {
          "internalType": "address payable",
          "name": "",
          "type": "address"
        }
      ],
      "stateMutability": "view",
      "type": "function"
    },
    {
      "inputs": [
        {
          "internalType": "uint256",
          "name": "tokenId",
          "type": "uint256"
        }
      ],
      "name": "ownerOf",
      "outputs": [
        {
          "internalType": "address",
          "name": "",
          "type": "address"
        }
      ],
      "stateMutability": "view",
      "type": "function"
    },
    {
      "inputs": [
        {
          "internalType": "string",
          "name": "name",
          "type": "string"
        }
      ],
      "name": "priceCheck",
      "outputs": [
        {
          "internalType": "uint256",
          "name": "",
          "type": "uint256"
        }
      ],
      "stateMutability": "pure",
      "type": "function"
    },
    {
      "inputs": [
        {
          "internalType": "string",
          "name": "",
          "type": "string"
        }
      ],
      "name": "records",
      "outputs": [
        {
          "internalType": "string",
          "name": "",
          "type": "string"
        }
      ],
      "stateMutability": "view",
      "type": "function"
    },
    {
      "inputs": [
        {
          "internalType": "string",
          "name": "name",
          "type": "string"
        }
      ],
      "name": "register",
      "outputs": [],
      "stateMutability": "payable",
      "type": "function"
    },
    {
      "inputs": [
        {
          "internalType": "address",
          "name": "from",
          "type": "address"
        },
        {
          "internalType": "address",
          "name": "to",
          "type": "address"
        },
        {
          "internalType": "uint256",
          "name": "tokenId",
          "type": "uint256"
        }
      ],
      "name": "safeTransferFrom",
      "outputs": [],
      "stateMutability": "nonpayable",
      "type": "function"
    },
    {
      "inputs": [
        {
          "internalType": "address",
          "name": "from",
          "type": "address"
        },
        {
          "internalType": "address",
          "name": "to",
          "type": "address"
        },
        {
          "internalType": "uint256",
          "name": "tokenId",
          "type": "uint256"
        },
        {
          "internalType": "bytes",
          "name": "_data",
          "type": "bytes"
        }
      ],
      "name": "safeTransferFrom",
      "outputs": [],
      "stateMutability": "nonpayable",
      "type": "function"
    },
    {
      "inputs": [
        {
          "internalType": "address",
          "name": "operator",
          "type": "address"
        },
        {
          "internalType": "bool",
          "name": "approved",
          "type": "bool"
        }
      ],
      "name": "setApprovalForAll",
      "outputs": [],
      "stateMutability": "nonpayable",
      "type": "function"
    },
    {
      "inputs": [
        {
          "internalType": "string",
          "name": "name",
          "type": "string"
        },
        {
          "internalType": "string",
          "name": "record",
          "type": "string"
        }
      ],
      "name": "setRecord",
      "outputs": [],
      "stateMutability": "nonpayable",
      "type": "function"
    },
    {
      "inputs": [
        {
          "internalType": "bytes4",
          "name": "interfaceId",
          "type": "bytes4"
        }
      ],
      "name": "supportsInterface",
      "outputs": [
        {
          "internalType": "bool",
          "name": "",
          "type": "bool"
        }
      ],
      "stateMutability": "view",
      "type": "function"
    },
    {
      "inputs": [],
      "name": "symbol",
      "outputs": [
        {
          "internalType": "string",
          "name": "",
          "type": "string"
        }
      ],
      "stateMutability": "view",
      "type": "function"
    },
    {
      "inputs": [],
      "name": "tld",
      "outputs": [
        {
          "internalType": "string",
          "name": "",
          "type": "string"
        }
      ],
      "stateMutability": "view",
      "type": "function"
    },
    {
      "inputs": [
        {
          "internalType": "uint256",
          "name": "tokenId",
          "type": "uint256"
        }
      ],
      "name": "tokenURI",
      "outputs": [
        {
          "internalType": "string",
          "name": "",
          "type": "string"
        }
      ],
      "stateMutability": "view",
      "type": "function"
    },
    {
      "inputs": [
        {
          "internalType": "address",
          "name": "from",
          "type": "address"
        },
        {
          "internalType": "address",
          "name": "to",
          "type": "address"
        },
        {
          "internalType": "uint256",
          "name": "tokenId",
          "type": "uint256"
        }
      ],
      "name": "transferFrom",
      "outputs": [],
      "stateMutability": "nonpayable",
      "type": "function"
    },
    {
      "inputs": [
        {
          "internalType": "address",
          "name": "",
          "type": "address"
        }
      ],
      "name": "userAddress",
      "outputs": [
        {
          "internalType": "string",
          "name": "",
          "type": "string"
        }
      ],
      "stateMutability": "view",
      "type": "function"
    },
    {
      "inputs": [
        {
          "internalType": "string",
          "name": "name",
          "type": "string"
        }
      ],
      "name": "valid",
      "outputs": [
        {
          "internalType": "bool",
          "name": "",
          "type": "bool"
        }
      ],
      "stateMutability": "pure",
      "type": "function"
    },
    {
      "inputs": [],
      "name": "withdraw",
      "outputs": [],
      "stateMutability": "nonpayable",
      "type": "function"
    }
  ],
  "bytecode": "0x6080604052604051806108a001604052806108698152602001620059146108699139600990805190602001906200003892919062000287565b506040518060400160405280600d81526020017f3c2f746578743e3c2f7376673e00000000000000000000000000000000000000815250600a90805190602001906200008692919062000287565b506040516200617d3803806200617d8339818101604052810190620000ac9190620004d4565b6040518060400160405280601181526020017f4d657461204e616d6520536572766963650000000000000000000000000000008152506040518060400160405280600381526020017f4d4e53000000000000000000000000000000000000000000000000000000000081525081600090805190602001906200013092919062000287565b5080600190805190602001906200014992919062000287565b50505080600890805190602001906200016492919062000287565b50620001b16040518060400160405280601881526020017f2573206e616d652073657276696365206465706c6f796564000000000000000081525082620001b860201b620020d11760201c565b5062000622565b6200025a8282604051602401620001d192919062000582565b6040516020818303038152906040527f4b5c4277000000000000000000000000000000000000000000000000000000007bffffffffffffffffffffffffffffffffffffffffffffffffffffffff19166020820180517bffffffffffffffffffffffffffffffffffffffffffffffffffffffff83818316178352505050506200025e60201b60201c565b5050565b60008151905060006a636f6e736f6c652e6c6f679050602083016000808483855afa5050505050565b8280546200029590620005ec565b90600052602060002090601f016020900481019282620002b9576000855562000305565b82601f10620002d457805160ff191683800117855562000305565b8280016001018555821562000305579182015b8281111562000304578251825591602001919060010190620002e7565b5b50905062000314919062000318565b5090565b5b808211156200033357600081600090555060010162000319565b5090565b6000604051905090565b600080fd5b600080fd5b600080fd5b600080fd5b6000601f19601f8301169050919050565b7f4e487b7100000000000000000000000000000000000000000000000000000000600052604160045260246000fd5b620003a08262000355565b810181811067ffffffffffffffff82111715620003c257620003c162000366565b5b80604052505050565b6000620003d762000337565b9050620003e5828262000395565b919050565b600067ffffffffffffffff82111562000408576200040762000366565b5b620004138262000355565b9050602081019050919050565b60005b838110156200044057808201518184015260208101905062000423565b8381111562000450576000848401525b50505050565b60006200046d6200046784620003ea565b620003cb565b9050828152602081018484840111156200048c576200048b62000350565b5b6200049984828562000420565b509392505050565b600082601f830112620004b957620004b86200034b565b5b8151620004cb84826020860162000456565b91505092915050565b600060208284031215620004ed57620004ec62000341565b5b600082015167ffffffffffffffff8111156200050e576200050d62000346565b5b6200051c84828501620004a1565b91505092915050565b600081519050919050565b600082825260208201905092915050565b60006200054e8262000525565b6200055a818562000530565b93506200056c81856020860162000420565b620005778162000355565b840191505092915050565b600060408201905081810360008301526200059e818562000541565b90508181036020830152620005b4818462000541565b90509392505050565b7f4e487b7100000000000000000000000000000000000000000000000000000000600052602260045260246000fd5b600060028204905060018216806200060557607f821691505b602082108114156200061c576200061b620005bd565b5b50919050565b6152e280620006326000396000f3fe6080604052600436106101d85760003560e01c806370a0823111610102578063bc055ae511610095578063e985e9c511610064578063e985e9c514610756578063f2c298be14610793578063f4cc50fe146107af578063fb825e5f146107ec576101d8565b8063bc055ae514610676578063bf40fac1146106b3578063c1880a98146106f0578063c87b56dd14610719576101d8565b80639791c097116100d15780639791c097146105aa578063a22cb465146105e7578063b1e3cdd514610610578063b88d4fde1461064d576101d8565b806370a08231146104ec5780638da5cb5b146105295780638f32d59b1461055457806395d89b411461057f576101d8565b80632d5514321161017a5780634622ab03116101495780634622ab03146103f8578063541e771d146104355780636352211e14610472578063668e6113146104af576101d8565b80632d55143214610350578063360500cc1461037b5780633ccfd60b146103b857806342842e0e146103cf576101d8565b8063095ea7b3116101b6578063095ea7b31461028257806311dd8845146102ab57806323b872dd146102ea5780632644923514610313576101d8565b806301ffc9a7146101dd57806306fdde031461021a578063081812fc14610245575b600080fd5b3480156101e957600080fd5b5061020460048036038101906101ff9190613652565b610817565b604051610211919061369a565b60405180910390f35b34801561022657600080fd5b5061022f6108f9565b60405161023c919061374e565b60405180910390f35b34801561025157600080fd5b5061026c600480360381019061026791906137a6565b61098b565b6040516102799190613814565b60405180910390f35b34801561028e57600080fd5b506102a960048036038101906102a4919061385b565b610a10565b005b3480156102b757600080fd5b506102d260048036038101906102cd9190613900565b610b28565b6040516102e19392919061394d565b60405180910390f35b3480156102f657600080fd5b50610311600480360381019061030c9190613992565b610c73565b005b34801561031f57600080fd5b5061033a60048036038101906103359190613b15565b610cd3565b6040516103479190613814565b60405180910390f35b34801561035c57600080fd5b50610365610d1c565b604051610372919061374e565b60405180910390f35b34801561038757600080fd5b506103a2600480360381019061039d9190613b5e565b610daa565b6040516103af919061374e565b60405180910390f35b3480156103c457600080fd5b506103cd610e4a565b005b3480156103db57600080fd5b506103f660048036038101906103f19190613992565b610f10565b005b34801561040457600080fd5b5061041f600480360381019061041a91906137a6565b610f30565b60405161042c919061374e565b60405180910390f35b34801561044157600080fd5b5061045c60048036038101906104579190613b15565b610fd0565b604051610469919061374e565b60405180910390f35b34801561047e57600080fd5b50610499600480360381019061049491906137a6565b611086565b6040516104a69190613814565b60405180910390f35b3480156104bb57600080fd5b506104d660048036038101906104d191906137a6565b611138565b6040516104e39190613814565b60405180910390f35b3480156104f857600080fd5b50610513600480360381019061050e9190613b5e565b61116b565b6040516105209190613b9a565b60405180910390f35b34801561053557600080fd5b5061053e611223565b60405161054b9190613bd6565b60405180910390f35b34801561056057600080fd5b50610569611249565b604051610576919061369a565b60405180910390f35b34801561058b57600080fd5b506105946112a1565b6040516105a1919061374e565b60405180910390f35b3480156105b657600080fd5b506105d160048036038101906105cc9190613900565b611333565b6040516105de919061369a565b60405180910390f35b3480156105f357600080fd5b5061060e60048036038101906106099190613c1d565b6113f8565b005b34801561061c57600080fd5b5061063760048036038101906106329190613b5e565b61144c565b604051610644919061374e565b60405180910390f35b34801561065957600080fd5b50610674600480360381019061066f9190613cfe565b611555565b005b34801561068257600080fd5b5061069d60048036038101906106989190613b15565b6115b7565b6040516106aa919061369a565b60405180910390f35b3480156106bf57600080fd5b506106da60048036038101906106d59190613900565b6115ed565b6040516106e79190613814565b60405180910390f35b3480156106fc57600080fd5b5061071760048036038101906107129190613d81565b611638565b005b34801561072557600080fd5b50610740600480360381019061073b91906137a6565b6116e6565b60405161074d919061374e565b60405180910390f35b34801561076257600080fd5b5061077d60048036038101906107789190613e02565b611838565b60405161078a919061369a565b60405180910390f35b6107ad60048036038101906107a89190613900565b6118cc565b005b3480156107bb57600080fd5b506107d660048036038101906107d19190613900565b611e4d565b6040516107e39190613b9a565b60405180910390f35b3480156107f857600080fd5b50610801611ef3565b60405161080e9190613f4e565b60405180910390f35b60007f80ac58cd000000000000000000000000000000000000000000000000000000007bffffffffffffffffffffffffffffffffffffffffffffffffffffffff1916827bffffffffffffffffffffffffffffffffffffffffffffffffffffffff191614806108e257507f5b5e139f000000000000000000000000000000000000000000000000000000007bffffffffffffffffffffffffffffffffffffffffffffffffffffffff1916827bffffffffffffffffffffffffffffffffffffffffffffffffffffffff1916145b806108f257506108f18261216d565b5b9050919050565b60606000805461090890613f9f565b80601f016020809104026020016040519081016040528092919081815260200182805461093490613f9f565b80156109815780601f1061095657610100808354040283529160200191610981565b820191906000526020600020905b81548152906001019060200180831161096457829003601f168201915b5050505050905090565b6000610996826121d7565b6109d5576040517f08c379a00000000000000000000000000000000000000000000000000000000081526004016109cc90614043565b60405180910390fd5b6004600083815260200190815260200160002060009054906101000a900473ffffffffffffffffffffffffffffffffffffffff169050919050565b6000610a1b82611086565b90508073ffffffffffffffffffffffffffffffffffffffff168373ffffffffffffffffffffffffffffffffffffffff161415610a8c576040517f08c379a0000000000000000000000000000000000000000000000000000000008152600401610a83906140d5565b60405180910390fd5b8073ffffffffffffffffffffffffffffffffffffffff16610aab612243565b73ffffffffffffffffffffffffffffffffffffffff161480610ada5750610ad981610ad4612243565b611838565b5b610b19576040517f08c379a0000000000000000000000000000000000000000000000000000000008152600401610b1090614167565b60405180910390fd5b610b23838361224b565b505050565b6000606080600b8585604051610b3f9291906141b7565b908152602001604051809103902060009054906101000a900473ffffffffffffffffffffffffffffffffffffffff168585600c8888604051610b829291906141b7565b908152602001604051809103902082828080601f016020809104026020016040519081016040528093929190818152602001838380828437600081840152601f19601f820116905080830192505050505050509150909150808054610be690613f9f565b80601f0160208091040260200160405190810160405280929190818152602001828054610c1290613f9f565b8015610c5f5780601f10610c3457610100808354040283529160200191610c5f565b820191906000526020600020905b815481529060010190602001808311610c4257829003601f168201915b505050505090509250925092509250925092565b610c84610c7e612243565b82612304565b610cc3576040517f08c379a0000000000000000000000000000000000000000000000000000000008152600401610cba90614242565b60405180910390fd5b610cce8383836123e2565b505050565b600b818051602081018201805184825260208301602085012081835280955050505050506000915054906101000a900473ffffffffffffffffffffffffffffffffffffffff1681565b60088054610d2990613f9f565b80601f0160208091040260200160405190810160405280929190818152602001828054610d5590613f9f565b8015610da25780601f10610d7757610100808354040283529160200191610da2565b820191906000526020600020905b815481529060010190602001808311610d8557829003601f168201915b505050505081565b600d6020528060005260406000206000915090508054610dc990613f9f565b80601f0160208091040260200160405190810160405280929190818152602001828054610df590613f9f565b8015610e425780601f10610e1757610100808354040283529160200191610e42565b820191906000526020600020905b815481529060010190602001808311610e2557829003601f168201915b505050505081565b610e52611249565b610e5b57600080fd5b600047905060003373ffffffffffffffffffffffffffffffffffffffff1682604051610e8690614293565b60006040518083038185875af1925050503d8060008114610ec3576040519150601f19603f3d011682016040523d82523d6000602084013e610ec8565b606091505b5050905080610f0c576040517f08c379a0000000000000000000000000000000000000000000000000000000008152600401610f03906142f4565b60405180910390fd5b5050565b610f2b83838360405180602001604052806000815250611555565b505050565b60116020528060005260406000206000915090508054610f4f90613f9f565b80601f0160208091040260200160405190810160405280929190818152602001828054610f7b90613f9f565b8015610fc85780601f10610f9d57610100808354040283529160200191610fc8565b820191906000526020600020905b815481529060010190602001808311610fab57829003601f168201915b505050505081565b600c81805160208101820180518482526020830160208501208183528095505050505050600091509050805461100590613f9f565b80601f016020809104026020016040519081016040528092919081815260200182805461103190613f9f565b801561107e5780601f106110535761010080835404028352916020019161107e565b820191906000526020600020905b81548152906001019060200180831161106157829003601f168201915b505050505081565b6000806002600084815260200190815260200160002060009054906101000a900473ffffffffffffffffffffffffffffffffffffffff169050600073ffffffffffffffffffffffffffffffffffffffff168173ffffffffffffffffffffffffffffffffffffffff16141561112f576040517f08c379a000000000000000000000000000000000000000000000000000000000815260040161112690614386565b60405180910390fd5b80915050919050565b60126020528060005260406000206000915054906101000a900473ffffffffffffffffffffffffffffffffffffffff1681565b60008073ffffffffffffffffffffffffffffffffffffffff168273ffffffffffffffffffffffffffffffffffffffff1614156111dc576040517f08c379a00000000000000000000000000000000000000000000000000000000081526004016111d390614418565b60405180910390fd5b600360008373ffffffffffffffffffffffffffffffffffffffff1673ffffffffffffffffffffffffffffffffffffffff168152602001908152602001600020549050919050565b601060009054906101000a900473ffffffffffffffffffffffffffffffffffffffff1681565b6000601060009054906101000a900473ffffffffffffffffffffffffffffffffffffffff1673ffffffffffffffffffffffffffffffffffffffff163373ffffffffffffffffffffffffffffffffffffffff1614905090565b6060600180546112b090613f9f565b80601f01602080910402602001604051908101604052809291908181526020018280546112dc90613f9f565b80156113295780601f106112fe57610100808354040283529160200191611329565b820191906000526020600020905b81548152906001019060200180831161130c57829003601f168201915b5050505050905090565b6000600361138484848080601f016020809104026020016040519081016040528093929190818152602001838380828437600081840152601f19601f82011690508083019250505050505050612649565b101580156113df575060076113dc84848080601f016020809104026020016040519081016040528093929190818152602001838380828437600081840152601f19601f82011690508083019250505050505050612649565b11155b156113ed57600190506113f2565b600090505b92915050565b61140a611403612243565b83836127fe565b6114486040518060400160405280600881526020017f617070726f76656400000000000000000000000000000000000000000000000081525061296b565b5050565b60608173ffffffffffffffffffffffffffffffffffffffff163373ffffffffffffffffffffffffffffffffffffffff161461148657600080fd5b600d60008373ffffffffffffffffffffffffffffffffffffffff1673ffffffffffffffffffffffffffffffffffffffff16815260200190815260200160002080546114d090613f9f565b80601f01602080910402602001604051908101604052809291908181526020018280546114fc90613f9f565b80156115495780601f1061151e57610100808354040283529160200191611549565b820191906000526020600020905b81548152906001019060200180831161152c57829003601f168201915b50505050509050919050565b611566611560612243565b83612304565b6115a5576040517f08c379a000000000000000000000000000000000000000000000000000000000815260040161159c90614242565b60405180910390fd5b6115b184848484612a04565b50505050565b600e818051602081018201805184825260208301602085012081835280955050505050506000915054906101000a900460ff1681565b6000600b83836040516116019291906141b7565b908152602001604051809103902060009054906101000a900473ffffffffffffffffffffffffffffffffffffffff16905092915050565b3373ffffffffffffffffffffffffffffffffffffffff16600b85856040516116619291906141b7565b908152602001604051809103902060009054906101000a900473ffffffffffffffffffffffffffffffffffffffff1673ffffffffffffffffffffffffffffffffffffffff16146116b057600080fd5b8181600c86866040516116c49291906141b7565b908152602001604051809103902091906116df9291906134bd565b5050505050565b60606116f1826121d7565b611730576040517f08c379a0000000000000000000000000000000000000000000000000000000008152600401611727906144aa565b60405180910390fd5b600060066000848152602001908152602001600020805461175090613f9f565b80601f016020809104026020016040519081016040528092919081815260200182805461177c90613f9f565b80156117c95780601f1061179e576101008083540402835291602001916117c9565b820191906000526020600020905b8154815290600101906020018083116117ac57829003601f168201915b5050505050905060006117da612a60565b90506000815114156117f0578192505050611833565b60008251111561182557808260405160200161180d9291906144fb565b60405160208183030381529060405292505050611833565b61182e84612a77565b925050505b919050565b6000600560008473ffffffffffffffffffffffffffffffffffffffff1673ffffffffffffffffffffffffffffffffffffffff16815260200190815260200160002060008373ffffffffffffffffffffffffffffffffffffffff1673ffffffffffffffffffffffffffffffffffffffff16815260200190815260200160002060009054906101000a900460ff16905092915050565b60011515600e83836040516118e29291906141b7565b908152602001604051809103902060009054906101000a900460ff161515141561190b57600080fd5b600115156119198383611333565b15151461192557600080fd5b600073ffffffffffffffffffffffffffffffffffffffff16600b838360405161194f9291906141b7565b908152602001604051809103902060009054906101000a900473ffffffffffffffffffffffffffffffffffffffff1673ffffffffffffffffffffffffffffffffffffffff161461199e57600080fd5b33600b83836040516119b19291906141b7565b908152602001604051809103902060006101000a81548173ffffffffffffffffffffffffffffffffffffffff021916908373ffffffffffffffffffffffffffffffffffffffff1602179055508181600d60003373ffffffffffffffffffffffffffffffffffffffff1673ffffffffffffffffffffffffffffffffffffffff1681526020019081526020016000209190611a4b9291906134bd565b506001600e8383604051611a609291906141b7565b908152602001604051809103902060006101000a81548160ff0219169083151502179055506000611a918383611e4d565b905080341015611ad6576040517f08c379a0000000000000000000000000000000000000000000000000000000008152600401611acd9061456b565b60405180910390fd5b600083836008604051602001611aee9392919061466b565b60405160208183030381529060405290506000600982600a604051602001611b189392919061469c565b6040516020818303038152906040529050611b336007612b1e565b600f819055506000611b8886868080601f016020809104026020016040519081016040528093929190818152602001838380828437600081840152601f19601f82011690508083019250505050505050612649565b90506000611b9582612b2c565b9050611c8b6040518060600160405280603181526020016152036031913988888080601f016020809104026020016040519081016040528093929190818152602001838380828437600081840152601f19601f8201169050808301925050505050505060088054611c0590613f9f565b80601f0160208091040260200160405190810160405280929190818152602001828054611c3190613f9f565b8015611c7e5780601f10611c5357610100808354040283529160200191611c7e565b820191906000526020600020905b815481529060010190602001808311611c6157829003601f168201915b5050505050600f54612c8d565b6000611cc185611c9a86612d2f565b84604051602001611cad93929190614849565b604051602081830303815290604052612d2f565b9050600081604051602001611cd691906148f2565b6040516020818303038152906040529050611d086040518060600160405280603981526020016151ca6039913961296b565b611d476040518060400160405280600e81526020017f46696e616c20746f6b656e555249000000000000000000000000000000000000815250826120d1565b611d686040518060600160405280603981526020016152346039913961296b565b611d7433600f54612ec7565b611d80600f5482612ee5565b611d8a6007612f59565b888860116000600f5481526020019081526020016000209190611dae9291906134bd565b503360126000600f54815260200190815260200160002060006101000a81548173ffffffffffffffffffffffffffffffffffffffff021916908373ffffffffffffffffffffffffffffffffffffffff160217905550611e426040518060400160405280601c81526020017f25732068617320726567697374657265642074686520646f6d61696e0000000081525033612f6f565b505050505050505050565b600080611e9d84848080601f016020809104026020016040519081016040528093929190818152602001838380828437600081840152601f19601f82011690508083019250505050505050612649565b905060008111611eac57600080fd5b6003811415611ec6576702c68af0bb140000915050611eed565b6004811415611ee057670429d069189e0000915050611eed565b67016345785d8a00009150505b92915050565b6060611f336040518060400160405280601f81526020017f47657474696e6720616c6c206e616d65732066726f6d20636f6e74726163740081525061296b565b6000611f3f6007612b1e565b67ffffffffffffffff811115611f5857611f576139ea565b5b604051908082528060200260200182016040528015611f8b57816020015b6060815260200190600190039081611f765790505b50905060005b611f9b6007612b1e565b8110156120c957601160008281526020019081526020016000208054611fc090613f9f565b80601f0160208091040260200160405190810160405280929190818152602001828054611fec90613f9f565b80156120395780601f1061200e57610100808354040283529160200191612039565b820191906000526020600020905b81548152906001019060200180831161201c57829003601f168201915b505050505082828151811061205157612050614914565b5b60200260200101819052506120b66040518060400160405280601781526020017f4e616d6520666f7220746f6b656e202564206973202573000000000000000000815250828484815181106120a9576120a8614914565b5b602002602001015161300b565b80806120c190614972565b915050611f91565b508091505090565b61216982826040516024016120e79291906149bb565b6040516020818303038152906040527f4b5c4277000000000000000000000000000000000000000000000000000000007bffffffffffffffffffffffffffffffffffffffffffffffffffffffff19166020820180517bffffffffffffffffffffffffffffffffffffffffffffffffffffffff83818316178352505050506130aa565b5050565b60007f01ffc9a7000000000000000000000000000000000000000000000000000000007bffffffffffffffffffffffffffffffffffffffffffffffffffffffff1916827bffffffffffffffffffffffffffffffffffffffffffffffffffffffff1916149050919050565b60008073ffffffffffffffffffffffffffffffffffffffff166002600084815260200190815260200160002060009054906101000a900473ffffffffffffffffffffffffffffffffffffffff1673ffffffffffffffffffffffffffffffffffffffff1614159050919050565b600033905090565b816004600083815260200190815260200160002060006101000a81548173ffffffffffffffffffffffffffffffffffffffff021916908373ffffffffffffffffffffffffffffffffffffffff160217905550808273ffffffffffffffffffffffffffffffffffffffff166122be83611086565b73ffffffffffffffffffffffffffffffffffffffff167f8c5be1e5ebec7d5bd14f71427d1e84f3dd0314c0f7b2291e5b200ac8c7c3b92560405160405180910390a45050565b600061230f826121d7565b61234e576040517f08c379a000000000000000000000000000000000000000000000000000000000815260040161234590614a64565b60405180910390fd5b600061235983611086565b90508073ffffffffffffffffffffffffffffffffffffffff168473ffffffffffffffffffffffffffffffffffffffff1614806123c857508373ffffffffffffffffffffffffffffffffffffffff166123b08461098b565b73ffffffffffffffffffffffffffffffffffffffff16145b806123d957506123d88185611838565b5b91505092915050565b8273ffffffffffffffffffffffffffffffffffffffff1661240282611086565b73ffffffffffffffffffffffffffffffffffffffff1614612458576040517f08c379a000000000000000000000000000000000000000000000000000000000815260040161244f90614af6565b60405180910390fd5b600073ffffffffffffffffffffffffffffffffffffffff168273ffffffffffffffffffffffffffffffffffffffff1614156124c8576040517f08c379a00000000000000000000000000000000000000000000000000000000081526004016124bf90614b88565b60405180910390fd5b6124d38383836130d3565b6124de60008261224b565b6001600360008573ffffffffffffffffffffffffffffffffffffffff1673ffffffffffffffffffffffffffffffffffffffff168152602001908152602001600020600082825461252e9190614ba8565b925050819055506001600360008473ffffffffffffffffffffffffffffffffffffffff1673ffffffffffffffffffffffffffffffffffffffff16815260200190815260200160002060008282546125859190614bdc565b92505081905550816002600083815260200190815260200160002060006101000a81548173ffffffffffffffffffffffffffffffffffffffff021916908373ffffffffffffffffffffffffffffffffffffffff160217905550808273ffffffffffffffffffffffffffffffffffffffff168473ffffffffffffffffffffffffffffffffffffffff167fddf252ad1be2c89b69c2b068fc378daa952ba7f163c4a11628f55a4df523b3ef60405160405180910390a46126448383836130d8565b505050565b60008060008084519050600092505b808210156127f357600085838151811061267557612674614914565b5b602001015160f81c60f81b9050608060f81b817effffffffffffffffffffffffffffffffffffffffffffffffffffffffffffff191610156126c4576001836126bd9190614bdc565b92506127df565b60e060f81b817effffffffffffffffffffffffffffffffffffffffffffffffffffffffffffff19161015612706576002836126ff9190614bdc565b92506127de565b60f060f81b817effffffffffffffffffffffffffffffffffffffffffffffffffffffffffffff19161015612748576003836127419190614bdc565b92506127dd565b60f8801b817effffffffffffffffffffffffffffffffffffffffffffffffffffffffffffff19161015612789576004836127829190614bdc565b92506127dc565b60fc60f81b817effffffffffffffffffffffffffffffffffffffffffffffffffffffffffffff191610156127cb576005836127c49190614bdc565b92506127db565b6006836127d89190614bdc565b92505b5b5b5b5b5082806127eb90614972565b935050612658565b829350505050919050565b8173ffffffffffffffffffffffffffffffffffffffff168373ffffffffffffffffffffffffffffffffffffffff16141561286d576040517f08c379a000000000000000000000000000000000000000000000000000000000815260040161286490614c7e565b60405180910390fd5b80600560008573ffffffffffffffffffffffffffffffffffffffff1673ffffffffffffffffffffffffffffffffffffffff16815260200190815260200160002060008473ffffffffffffffffffffffffffffffffffffffff1673ffffffffffffffffffffffffffffffffffffffff16815260200190815260200160002060006101000a81548160ff0219169083151502179055508173ffffffffffffffffffffffffffffffffffffffff168373ffffffffffffffffffffffffffffffffffffffff167f17307eab39ab6107e8899845ad3d59bd9653f200f220920489ca2b5937696c318360405161295e919061369a565b60405180910390a3505050565b612a018160405160240161297f919061374e565b6040516020818303038152906040527f41304fac000000000000000000000000000000000000000000000000000000007bffffffffffffffffffffffffffffffffffffffffffffffffffffffff19166020820180517bffffffffffffffffffffffffffffffffffffffffffffffffffffffff83818316178352505050506130aa565b50565b612a0f8484846123e2565b612a1b848484846130dd565b612a5a576040517f08c379a0000000000000000000000000000000000000000000000000000000008152600401612a5190614d10565b60405180910390fd5b50505050565b606060405180602001604052806000815250905090565b6060612a82826121d7565b612ac1576040517f08c379a0000000000000000000000000000000000000000000000000000000008152600401612ab890614da2565b60405180910390fd5b6000612acb612a60565b90506000815111612aeb5760405180602001604052806000815250612b16565b80612af584612b2c565b604051602001612b069291906144fb565b6040516020818303038152906040525b915050919050565b600081600001549050919050565b60606000821415612b74576040518060400160405280600181526020017f30000000000000000000000000000000000000000000000000000000000000008152509050612c88565b600082905060005b60008214612ba6578080612b8f90614972565b915050600a82612b9f9190614df1565b9150612b7c565b60008167ffffffffffffffff811115612bc257612bc16139ea565b5b6040519080825280601f01601f191660200182016040528015612bf45781602001600182028036833780820191505090505b5090505b60008514612c8157600182612c0d9190614ba8565b9150600a85612c1c9190614e22565b6030612c289190614bdc565b60f81b818381518110612c3e57612c3d614914565b5b60200101907effffffffffffffffffffffffffffffffffffffffffffffffffffffffffffff1916908160001a905350600a85612c7a9190614df1565b9450612bf8565b8093505050505b919050565b612d2984848484604051602401612ca79493929190614e53565b6040516020818303038152906040527f9fd009f5000000000000000000000000000000000000000000000000000000007bffffffffffffffffffffffffffffffffffffffffffffffffffffffff19166020820180517bffffffffffffffffffffffffffffffffffffffffffffffffffffffff83818316178352505050506130aa565b50505050565b60606000825190506000811415612d585760405180602001604052806000815250915050612ec2565b60006003600283612d699190614bdc565b612d739190614df1565b6004612d7f9190614ead565b90506000602082612d909190614bdc565b67ffffffffffffffff811115612da957612da86139ea565b5b6040519080825280601f01601f191660200182016040528015612ddb5781602001600182028036833780820191505090505b509050600060405180606001604052806040815260200161526d604091399050600181016020830160005b86811015612e7f5760038101905062ffffff818a015116603f8160121c168401518060081b905060ff603f83600c1c1686015116810190508060081b905060ff603f8360061c1686015116810190508060081b905060ff603f831686015116810190508060e01b90508084526004840193505050612e06565b506003860660018114612e995760028114612ea957612eb4565b613d3d60f01b6002830352612eb4565b603d60f81b60018303525b508484525050819450505050505b919050565b612ee1828260405180602001604052806000815250613265565b5050565b612eee826121d7565b612f2d576040517f08c379a0000000000000000000000000000000000000000000000000000000008152600401612f2490614f79565b60405180910390fd5b80600660008481526020019081526020016000209080519060200190612f54929190613543565b505050565b6001816000016000828254019250508190555050565b6130078282604051602401612f85929190614f99565b6040516020818303038152906040527f319af333000000000000000000000000000000000000000000000000000000007bffffffffffffffffffffffffffffffffffffffffffffffffffffffff19166020820180517bffffffffffffffffffffffffffffffffffffffffffffffffffffffff83818316178352505050506130aa565b5050565b6130a583838360405160240161302393929190614fc9565b6040516020818303038152906040527fa3f5c739000000000000000000000000000000000000000000000000000000007bffffffffffffffffffffffffffffffffffffffffffffffffffffffff19166020820180517bffffffffffffffffffffffffffffffffffffffffffffffffffffffff83818316178352505050506130aa565b505050565b60008151905060006a636f6e736f6c652e6c6f679050602083016000808483855afa5050505050565b505050565b505050565b60006130fe8473ffffffffffffffffffffffffffffffffffffffff166132c0565b15613258578373ffffffffffffffffffffffffffffffffffffffff1663150b7a02613127612243565b8786866040518563ffffffff1660e01b81526004016131499493929190615063565b6020604051808303816000875af192505050801561318557506040513d601f19601f8201168201806040525081019061318291906150c4565b60015b613208573d80600081146131b5576040519150601f19603f3d011682016040523d82523d6000602084013e6131ba565b606091505b50600081511415613200576040517f08c379a00000000000000000000000000000000000000000000000000000000081526004016131f790614d10565b60405180910390fd5b805181602001fd5b63150b7a0260e01b7bffffffffffffffffffffffffffffffffffffffffffffffffffffffff1916817bffffffffffffffffffffffffffffffffffffffffffffffffffffffff19161491505061325d565b600190505b949350505050565b61326f83836132e3565b61327c60008484846130dd565b6132bb576040517f08c379a00000000000000000000000000000000000000000000000000000000081526004016132b290614d10565b60405180910390fd5b505050565b6000808273ffffffffffffffffffffffffffffffffffffffff163b119050919050565b600073ffffffffffffffffffffffffffffffffffffffff168273ffffffffffffffffffffffffffffffffffffffff161415613353576040517f08c379a000000000000000000000000000000000000000000000000000000000815260040161334a9061513d565b60405180910390fd5b61335c816121d7565b1561339c576040517f08c379a0000000000000000000000000000000000000000000000000000000008152600401613393906151a9565b60405180910390fd5b6133a8600083836130d3565b6001600360008473ffffffffffffffffffffffffffffffffffffffff1673ffffffffffffffffffffffffffffffffffffffff16815260200190815260200160002060008282546133f89190614bdc565b92505081905550816002600083815260200190815260200160002060006101000a81548173ffffffffffffffffffffffffffffffffffffffff021916908373ffffffffffffffffffffffffffffffffffffffff160217905550808273ffffffffffffffffffffffffffffffffffffffff16600073ffffffffffffffffffffffffffffffffffffffff167fddf252ad1be2c89b69c2b068fc378daa952ba7f163c4a11628f55a4df523b3ef60405160405180910390a46134b9600083836130d8565b5050565b8280546134c990613f9f565b90600052602060002090601f0160209004810192826134eb5760008555613532565b82601f1061350457803560ff1916838001178555613532565b82800160010185558215613532579182015b82811115613531578235825591602001919060010190613516565b5b50905061353f91906135c9565b5090565b82805461354f90613f9f565b90600052602060002090601f01602090048101928261357157600085556135b8565b82601f1061358a57805160ff19168380011785556135b8565b828001600101855582156135b8579182015b828111156135b757825182559160200191906001019061359c565b5b5090506135c591906135c9565b5090565b5b808211156135e25760008160009055506001016135ca565b5090565b6000604051905090565b600080fd5b600080fd5b60007fffffffff0000000000000000000000000000000000000000000000000000000082169050919050565b61362f816135fa565b811461363a57600080fd5b50565b60008135905061364c81613626565b92915050565b600060208284031215613668576136676135f0565b5b60006136768482850161363d565b91505092915050565b60008115159050919050565b6136948161367f565b82525050565b60006020820190506136af600083018461368b565b92915050565b600081519050919050565b600082825260208201905092915050565b60005b838110156136ef5780820151818401526020810190506136d4565b838111156136fe576000848401525b50505050565b6000601f19601f8301169050919050565b6000613720826136b5565b61372a81856136c0565b935061373a8185602086016136d1565b61374381613704565b840191505092915050565b600060208201905081810360008301526137688184613715565b905092915050565b6000819050919050565b61378381613770565b811461378e57600080fd5b50565b6000813590506137a08161377a565b92915050565b6000602082840312156137bc576137bb6135f0565b5b60006137ca84828501613791565b91505092915050565b600073ffffffffffffffffffffffffffffffffffffffff82169050919050565b60006137fe826137d3565b9050919050565b61380e816137f3565b82525050565b60006020820190506138296000830184613805565b92915050565b613838816137f3565b811461384357600080fd5b50565b6000813590506138558161382f565b92915050565b60008060408385031215613872576138716135f0565b5b600061388085828601613846565b925050602061389185828601613791565b9150509250929050565b600080fd5b600080fd5b600080fd5b60008083601f8401126138c0576138bf61389b565b5b8235905067ffffffffffffffff8111156138dd576138dc6138a0565b5b6020830191508360018202830111156138f9576138f86138a5565b5b9250929050565b60008060208385031215613917576139166135f0565b5b600083013567ffffffffffffffff811115613935576139346135f5565b5b613941858286016138aa565b92509250509250929050565b60006060820190506139626000830186613805565b81810360208301526139748185613715565b905081810360408301526139888184613715565b9050949350505050565b6000806000606084860312156139ab576139aa6135f0565b5b60006139b986828701613846565b93505060206139ca86828701613846565b92505060406139db86828701613791565b9150509250925092565b600080fd5b7f4e487b7100000000000000000000000000000000000000000000000000000000600052604160045260246000fd5b613a2282613704565b810181811067ffffffffffffffff82111715613a4157613a406139ea565b5b80604052505050565b6000613a546135e6565b9050613a608282613a19565b919050565b600067ffffffffffffffff821115613a8057613a7f6139ea565b5b613a8982613704565b9050602081019050919050565b82818337600083830152505050565b6000613ab8613ab384613a65565b613a4a565b905082815260208101848484011115613ad457613ad36139e5565b5b613adf848285613a96565b509392505050565b600082601f830112613afc57613afb61389b565b5b8135613b0c848260208601613aa5565b91505092915050565b600060208284031215613b2b57613b2a6135f0565b5b600082013567ffffffffffffffff811115613b4957613b486135f5565b5b613b5584828501613ae7565b91505092915050565b600060208284031215613b7457613b736135f0565b5b6000613b8284828501613846565b91505092915050565b613b9481613770565b82525050565b6000602082019050613baf6000830184613b8b565b92915050565b6000613bc0826137d3565b9050919050565b613bd081613bb5565b82525050565b6000602082019050613beb6000830184613bc7565b92915050565b613bfa8161367f565b8114613c0557600080fd5b50565b600081359050613c1781613bf1565b92915050565b60008060408385031215613c3457613c336135f0565b5b6000613c4285828601613846565b9250506020613c5385828601613c08565b9150509250929050565b600067ffffffffffffffff821115613c7857613c776139ea565b5b613c8182613704565b9050602081019050919050565b6000613ca1613c9c84613c5d565b613a4a565b905082815260208101848484011115613cbd57613cbc6139e5565b5b613cc8848285613a96565b509392505050565b600082601f830112613ce557613ce461389b565b5b8135613cf5848260208601613c8e565b91505092915050565b60008060008060808587031215613d1857613d176135f0565b5b6000613d2687828801613846565b9450506020613d3787828801613846565b9350506040613d4887828801613791565b925050606085013567ffffffffffffffff811115613d6957613d686135f5565b5b613d7587828801613cd0565b91505092959194509250565b60008060008060408587031215613d9b57613d9a6135f0565b5b600085013567ffffffffffffffff811115613db957613db86135f5565b5b613dc5878288016138aa565b9450945050602085013567ffffffffffffffff811115613de857613de76135f5565b5b613df4878288016138aa565b925092505092959194509250565b60008060408385031215613e1957613e186135f0565b5b6000613e2785828601613846565b9250506020613e3885828601613846565b9150509250929050565b600081519050919050565b600082825260208201905092915050565b6000819050602082019050919050565b600082825260208201905092915050565b6000613e8a826136b5565b613e948185613e6e565b9350613ea48185602086016136d1565b613ead81613704565b840191505092915050565b6000613ec48383613e7f565b905092915050565b6000602082019050919050565b6000613ee482613e42565b613eee8185613e4d565b935083602082028501613f0085613e5e565b8060005b85811015613f3c5784840389528151613f1d8582613eb8565b9450613f2883613ecc565b925060208a01995050600181019050613f04565b50829750879550505050505092915050565b60006020820190508181036000830152613f688184613ed9565b905092915050565b7f4e487b7100000000000000000000000000000000000000000000000000000000600052602260045260246000fd5b60006002820490506001821680613fb757607f821691505b60208210811415613fcb57613fca613f70565b5b50919050565b7f4552433732313a20617070726f76656420717565727920666f72206e6f6e657860008201527f697374656e7420746f6b656e0000000000000000000000000000000000000000602082015250565b600061402d602c836136c0565b915061403882613fd1565b604082019050919050565b6000602082019050818103600083015261405c81614020565b9050919050565b7f4552433732313a20617070726f76616c20746f2063757272656e74206f776e6560008201527f7200000000000000000000000000000000000000000000000000000000000000602082015250565b60006140bf6021836136c0565b91506140ca82614063565b604082019050919050565b600060208201905081810360008301526140ee816140b2565b9050919050565b7f4552433732313a20617070726f76652063616c6c6572206973206e6f74206f7760008201527f6e6572206e6f7220617070726f76656420666f7220616c6c0000000000000000602082015250565b60006141516038836136c0565b915061415c826140f5565b604082019050919050565b6000602082019050818103600083015261418081614144565b9050919050565b600081905092915050565b600061419e8385614187565b93506141ab838584613a96565b82840190509392505050565b60006141c4828486614192565b91508190509392505050565b7f4552433732313a207472616e736665722063616c6c6572206973206e6f74206f60008201527f776e6572206e6f7220617070726f766564000000000000000000000000000000602082015250565b600061422c6031836136c0565b9150614237826141d0565b604082019050919050565b6000602082019050818103600083015261425b8161421f565b9050919050565b600081905092915050565b50565b600061427d600083614262565b91506142888261426d565b600082019050919050565b600061429e82614270565b9150819050919050565b7f4661696c656420746f207769746864726177204d617469630000000000000000600082015250565b60006142de6018836136c0565b91506142e9826142a8565b602082019050919050565b6000602082019050818103600083015261430d816142d1565b9050919050565b7f4552433732313a206f776e657220717565727920666f72206e6f6e657869737460008201527f656e7420746f6b656e0000000000000000000000000000000000000000000000602082015250565b60006143706029836136c0565b915061437b82614314565b604082019050919050565b6000602082019050818103600083015261439f81614363565b9050919050565b7f4552433732313a2062616c616e636520717565727920666f7220746865207a6560008201527f726f206164647265737300000000000000000000000000000000000000000000602082015250565b6000614402602a836136c0565b915061440d826143a6565b604082019050919050565b60006020820190508181036000830152614431816143f5565b9050919050565b7f45524337323155524953746f726167653a2055524920717565727920666f722060008201527f6e6f6e6578697374656e7420746f6b656e000000000000000000000000000000602082015250565b60006144946031836136c0565b915061449f82614438565b604082019050919050565b600060208201905081810360008301526144c381614487565b9050919050565b60006144d5826136b5565b6144df8185614187565b93506144ef8185602086016136d1565b80840191505092915050565b600061450782856144ca565b915061451382846144ca565b91508190509392505050565b7f4e6f7420656e6f756768204d6174696320706169640000000000000000000000600082015250565b60006145556015836136c0565b91506145608261451f565b602082019050919050565b6000602082019050818103600083015261458481614548565b9050919050565b7f2e00000000000000000000000000000000000000000000000000000000000000600082015250565b60006145c1600183614187565b91506145cc8261458b565b600182019050919050565b60008190508160005260206000209050919050565b600081546145f981613f9f565b6146038186614187565b9450600182166000811461461e576001811461462f57614662565b60ff19831686528186019350614662565b614638856145d7565b60005b8381101561465a5781548189015260018201915060208101905061463b565b838801955050505b50505092915050565b6000614678828587614192565b9150614683826145b4565b915061468f82846145ec565b9150819050949350505050565b60006146a882866145ec565b91506146b482856144ca565b91506146c082846145ec565b9150819050949350505050565b7f7b226e616d65223a202200000000000000000000000000000000000000000000600082015250565b6000614703600a83614187565b915061470e826146cd565b600a82019050919050565b7f222c20226465736372697074696f6e223a20224120646f6d61696e206f6e207460008201527f6865204d657461206e616d652073657276696365222c2022696d616765223a2060208201527f22646174613a696d6167652f7376672b786d6c3b6261736536342c0000000000604082015250565b600061479b605b83614187565b91506147a682614719565b605b82019050919050565b7f222c226c656e677468223a220000000000000000000000000000000000000000600082015250565b60006147e7600c83614187565b91506147f2826147b1565b600c82019050919050565b7f227d000000000000000000000000000000000000000000000000000000000000600082015250565b6000614833600283614187565b915061483e826147fd565b600282019050919050565b6000614854826146f6565b915061486082866144ca565b915061486b8261478e565b915061487782856144ca565b9150614882826147da565b915061488e82846144ca565b915061489982614826565b9150819050949350505050565b7f646174613a6170706c69636174696f6e2f6a736f6e3b6261736536342c000000600082015250565b60006148dc601d83614187565b91506148e7826148a6565b601d82019050919050565b60006148fd826148cf565b915061490982846144ca565b915081905092915050565b7f4e487b7100000000000000000000000000000000000000000000000000000000600052603260045260246000fd5b7f4e487b7100000000000000000000000000000000000000000000000000000000600052601160045260246000fd5b600061497d82613770565b91507fffffffffffffffffffffffffffffffffffffffffffffffffffffffffffffffff8214156149b0576149af614943565b5b600182019050919050565b600060408201905081810360008301526149d58185613715565b905081810360208301526149e98184613715565b90509392505050565b7f4552433732313a206f70657261746f7220717565727920666f72206e6f6e657860008201527f697374656e7420746f6b656e0000000000000000000000000000000000000000602082015250565b6000614a4e602c836136c0565b9150614a59826149f2565b604082019050919050565b60006020820190508181036000830152614a7d81614a41565b9050919050565b7f4552433732313a207472616e736665722066726f6d20696e636f72726563742060008201527f6f776e6572000000000000000000000000000000000000000000000000000000602082015250565b6000614ae06025836136c0565b9150614aeb82614a84565b604082019050919050565b60006020820190508181036000830152614b0f81614ad3565b9050919050565b7f4552433732313a207472616e7366657220746f20746865207a65726f2061646460008201527f7265737300000000000000000000000000000000000000000000000000000000602082015250565b6000614b726024836136c0565b9150614b7d82614b16565b604082019050919050565b60006020820190508181036000830152614ba181614b65565b9050919050565b6000614bb382613770565b9150614bbe83613770565b925082821015614bd157614bd0614943565b5b828203905092915050565b6000614be782613770565b9150614bf283613770565b9250827fffffffffffffffffffffffffffffffffffffffffffffffffffffffffffffffff03821115614c2757614c26614943565b5b828201905092915050565b7f4552433732313a20617070726f766520746f2063616c6c657200000000000000600082015250565b6000614c686019836136c0565b9150614c7382614c32565b602082019050919050565b60006020820190508181036000830152614c9781614c5b565b9050919050565b7f4552433732313a207472616e7366657220746f206e6f6e20455243373231526560008201527f63656976657220696d706c656d656e7465720000000000000000000000000000602082015250565b6000614cfa6032836136c0565b9150614d0582614c9e565b604082019050919050565b60006020820190508181036000830152614d2981614ced565b9050919050565b7f4552433732314d657461646174613a2055524920717565727920666f72206e6f60008201527f6e6578697374656e7420746f6b656e0000000000000000000000000000000000602082015250565b6000614d8c602f836136c0565b9150614d9782614d30565b604082019050919050565b60006020820190508181036000830152614dbb81614d7f565b9050919050565b7f4e487b7100000000000000000000000000000000000000000000000000000000600052601260045260246000fd5b6000614dfc82613770565b9150614e0783613770565b925082614e1757614e16614dc2565b5b828204905092915050565b6000614e2d82613770565b9150614e3883613770565b925082614e4857614e47614dc2565b5b828206905092915050565b60006080820190508181036000830152614e6d8187613715565b90508181036020830152614e818186613715565b90508181036040830152614e958185613715565b9050614ea46060830184613b8b565b95945050505050565b6000614eb882613770565b9150614ec383613770565b9250817fffffffffffffffffffffffffffffffffffffffffffffffffffffffffffffffff0483118215151615614efc57614efb614943565b5b828202905092915050565b7f45524337323155524953746f726167653a2055524920736574206f66206e6f6e60008201527f6578697374656e7420746f6b656e000000000000000000000000000000000000602082015250565b6000614f63602e836136c0565b9150614f6e82614f07565b604082019050919050565b60006020820190508181036000830152614f9281614f56565b9050919050565b60006040820190508181036000830152614fb38185613715565b9050614fc26020830184613805565b9392505050565b60006060820190508181036000830152614fe38186613715565b9050614ff26020830185613b8b565b81810360408301526150048184613715565b9050949350505050565b600081519050919050565b600082825260208201905092915050565b60006150358261500e565b61503f8185615019565b935061504f8185602086016136d1565b61505881613704565b840191505092915050565b60006080820190506150786000830187613805565b6150856020830186613805565b6150926040830185613b8b565b81810360608301526150a4818461502a565b905095945050505050565b6000815190506150be81613626565b92915050565b6000602082840312156150da576150d96135f0565b5b60006150e8848285016150af565b91505092915050565b7f4552433732313a206d696e7420746f20746865207a65726f2061646472657373600082015250565b60006151276020836136c0565b9150615132826150f1565b602082019050919050565b600060208201905081810360008301526151568161511a565b9050919050565b7f4552433732313a20746f6b656e20616c7265616479206d696e74656400000000600082015250565b6000615193601c836136c0565b915061519e8261515d565b602082019050919050565b600060208201905081810360008301526151c281615186565b905091905056fe0a2d2d2d2d2d2d2d2d2d2d2d2d2d2d2d2d2d2d2d2d2d2d2d2d2d2d2d2d2d2d2d2d2d2d2d2d2d2d2d2d2d2d2d2d2d2d2d2d2d2d2d2d2d2d2d2d5265676973746572696e672025732e2573206f6e2074686520636f6e7472616374207769746820746f6b656e49442025642d2d2d2d2d2d2d2d2d2d2d2d2d2d2d2d2d2d2d2d2d2d2d2d2d2d2d2d2d2d2d2d2d2d2d2d2d2d2d2d2d2d2d2d2d2d2d2d2d2d2d2d2d2d2d2d0a4142434445464748494a4b4c4d4e4f505152535455565758595a6162636465666768696a6b6c6d6e6f707172737475767778797a303132333435363738392b2fa26469706673582212201050a2a77dfb48a9b2101989ee5f6a028a08096413df2084dd8a1ca6d72d68cc64736f6c634300080b00333c73766720786d6c6e733d22687474703a2f2f7777772e77332e6f72672f323030302f737667222077696474683d2232373022206865696768743d22323730222066696c6c3d226e6f6e65223e3c706174682066696c6c3d2275726c282342292220643d224d302030683237307632373048307a222f3e3c646566733e3c66696c7465722069643d22412220636f6c6f722d696e746572706f6c6174696f6e2d66696c746572733d2273524742222066696c746572556e6974733d227573657253706163654f6e55736522206865696768743d22323730222077696474683d22323730223e3c666544726f70536861646f772064783d2230222064793d22312220737464446576696174696f6e3d22322220666c6f6f642d6f7061636974793d222e323235222077696474683d223230302522206865696768743d2232303025222f3e3c2f66696c7465723e3c2f646566733e3c7061746820643d224d37322e3836332034322e393439632d2e3636382d2e3338372d312e3432362d2e35392d322e3139372d2e3539732d312e3532392e3230342d322e3139372e35396c2d31302e30383120362e3033322d362e383520332e3933342d31302e30383120362e303332632d2e3636382e3338372d312e3432362e35392d322e3139372e3539732d312e3532392d2e3230342d322e3139372d2e35396c2d382e3031332d342e37323161342e353220342e35322030203020312d312e3538392d312e363136632d2e3338342d2e3636352d2e3539342d312e3431382d2e3630382d322e313837762d392e3331632d2e3031332d2e3737352e3138352d312e3533382e3537322d322e32303861342e323520342e323520302030203120312e3632352d312e3539356c372e3838342d342e3539632e3636382d2e33383720312e3432362d2e353920322e3139372d2e353973312e3532392e32303420322e3139372e35396c372e38383420342e353961342e353220342e353220302030203120312e35383920312e363136632e3338342e3636352e35393420312e3431382e36303820322e31383776362e3033326c362e38352d342e303635762d362e303332632e3031332d2e3737352d2e3138352d312e3533382d2e3537322d322e32303861342e323520342e32352030203020302d312e3632352d312e3539354c34312e3435362032342e3539632d2e3636382d2e3338372d312e3432362d2e35392d322e3139372d2e3539732d312e3532392e3230342d322e3139372e35396c2d31342e38363420382e36353561342e323520342e32352030203020302d312e36323520312e353935632d2e3338372e36372d2e35383520312e3433342d2e35373220322e3230387631372e343431632d2e3031332e3737352e31383520312e3533382e35373220322e32303861342e323520342e323520302030203020312e36323520312e3539356c31342e38363420382e363535632e3636382e33383720312e3432362e353920322e3139372e353973312e3532392d2e32303420322e3139372d2e35396c31302e3038312d352e39303120362e38352d342e3036352031302e3038312d352e393031632e3636382d2e33383720312e3432362d2e353920322e3139372d2e353973312e3532392e32303420322e3139372e35396c372e38383420342e353961342e353220342e353220302030203120312e35383920312e363136632e3338342e3636352e35393420312e3431382e36303820322e31383776392e333131632e3031332e3737352d2e31383520312e3533382d2e35373220322e32303861342e323520342e32352030203020312d312e36323520312e3539356c2d372e38383420342e373231632d2e3636382e3338372d312e3432362e35392d322e3139372e3539732d312e3532392d2e3230342d322e3139372d2e35396c2d372e3838342d342e353961342e353220342e35322030203020312d312e3538392d312e363136632d2e3338352d2e3636352d2e3539342d312e3431382d2e3630382d322e313837762d362e3033326c2d362e383520342e30363576362e303332632d2e3031332e3737352e31383520312e3533382e35373220322e32303861342e323520342e323520302030203020312e36323520312e3539356c31342e38363420382e363535632e3636382e33383720312e3432362e353920322e3139372e353973312e3532392d2e32303420322e3139372d2e35396c31342e3836342d382e363535632e3635372d2e33393420312e3230342d2e393520312e3538392d312e363136732e3539342d312e3431382e3630392d322e3138375635352e353338632e3031332d2e3737352d2e3138352d312e3533382d2e3537322d322e32303861342e323520342e32352030203020302d312e3632352d312e3539356c2d31342e3939332d382e3738367a222066696c6c3d222330306666222f3e3c646566733e3c6c696e6561724772616469656e742069643d2242222078313d2233222079313d2230222078323d22323730222079323d2232373022206772616469656e74556e6974733d227573657253706163654f6e557365223e3c73746f702073746f702d636f6c6f723d226673736666222f3e3c73746f70206f66667365743d2231222073746f702d636f6c6f723d22233063376534222073746f702d6f7061636974793d222e3939222f3e3c2f6c696e6561724772616469656e743e3c2f646566733e3c7465787420783d2235322e352220793d223135312220666f6e742d73697a653d223237222066696c6c3d2223666666222066696c7465723d2275726c282341292220666f6e742d66616d696c793d22506c7573204a616b617274612053616e732c44656a6156752053616e732c4e6f746f20436f6c6f7220456d6f6a692c4170706c6520436f6c6f7220456d6f6a692c73616e732d73657269662220666f6e742d7765696768743d22626f6c64223e",
  "linkReferences": {},
  "deployedLinkReferences": {}
}